:020000040800F2
:1000000028C40020AD9C0108A5170008A917000806
:10001000B5170008B9170008BD1700080000000058
:10002000000000000000000000000000C1170008F0
:10003000C31700080000000007A001086B9F01081B
:10004000D19C0108D19C0108D19C0108D19C0108D8
:10005000D19C0108D19C0108D19C0108D19C0108C8
:10006000D19C0108D19C0108D19C0108D19C0108B8
:10007000D19C0108D19C0108718D0108958D010862
:10008000D19C0108D19C0108D19C0108D19C010898
:10009000BD610008D19C0108D19C0108D19C0108D8
:1000A000D19C0108A5140008D19C0108D19C01082D
:1000B000351400083B1500085F160008D19C0108A4
:1000C000D19C0108D19C0108D19C0108D19C010858
:1000D000D19C0108C71600087B5400089B4D0008FE
:1000E000D19C0108D19C0108D19C0108D19C010838
:1000F000D7140008D19C0108D19C01084D8D01083E
:10010000D19C0108D19C010809150008D19C010867
:1001100091160008FD160008D19C0108D19C010829
:10012000D19C0108D19C0108D19C0108D19C0108F7
:10013000D19C0108D19C0108D19C0108D19C0108E7
:1001400065110008D19C0108D19C0108D19C0108CF
:10015000D19C0108D19C01082F8D0108D19C010878
:10016000D19C0108D19C0108D19C0108D19C0108B7
:10017000D19C0108D19C0108D19C0108D19C0108A7
:10018000D19C0108D19C010800F002F800F060F851
:100190000AA090E8000C82448344AAF10107DA45E2
:1001A00001D100F055F8AFF2090EBAE80F0013F0D4
:1001B000010F18BFFB1A43F0010318479C230200EC
:1001C000BC23020010F8013B0A4413F0030408BFEB
:1001D00010F8014B1D1108BF10F8015B641E05D01B
:1001E00010F8016B641E01F8016BF9D1002D15D0D8
:1001F00010F8014B03F00C030C2BA1EB04040ABF15
:1002000010F8013BA4EB8314A4EB032405F10103D4
:1002100014F8016B5B1E01F8016BF9D5914238BFF0
:1002200010F8013BD1D3704700230024002500269D
:10023000103A28BF78C1FBD8520728BF30C148BF49
:100240000B6070471FB521F064FF1FBD10B510BDD6
:100250001FF0FAFD1146FFF7F5FF00F01DF81FF043
:1002600018FE03B4FFF7F2FF03BC1FF01BFE0000F3
:10027000184800686421B0FBF1F4204619F086FEAE
:100280001AF06AFC00F034FF00BF00231A46012177
:1002900018461CF079FDF8E710B586B000BF19F0DC
:1002A000D9FE1AF054FB032000214FF480720A4B50
:1002B000CDE90132CDE903100A200346074A009038
:1002C00007481CF0D5F904461AF02EFC002006B0B1
:1002D00010BD00009835002024360020203A002070
:1002E000710200081FB59DF80C0003900120FE4923
:1002F000087003AA0021FD4800681CF05DF871E059
:1003000003AA0021F94800681BF040FF0020F849CB
:10031000088005F0C4FBF748007801284DD10BF0A8
:100320008FFE012808D0F4480BF0F8FF012803D015
:100330000CF038F801280AD1F04800882C2806D0A3
:1003400000231A460321EE4802F08CFC34E0ED480D
:10035000007808B90DF084FBEA48EB49097800EE13
:10036000101AB8EE400A0DF096FDE848007808B97A
:100370000DF069FCE548E649097800EE101AB8EE80
:10038000400A0DF06AFEE34890ED010ADFEDE20A53
:1003900020EE200ABDEEC00A10EE103A90ED000AE1
:1003A000DFEDDD0A20EE200ABDEEC00A10EE102AB5
:1003B0000321D34802F056FC00E000BF00BF0DF05F
:1003C0006FF9CB480088D5A14FF4C872D44BCDE962
:1003D00000210290D34AD449D44818F0A2FE00204C
:1003E000C34908808CE788B09DF81C000790D0486E
:1003F000007801281DD1C148008802280EDBBF48C3
:1004000000880A280ADC9FEDCB0ACB4880ED000A61
:100410009FEDCA0ACA4880ED000A27E09FEDC90A8D
:10042000C54880ED000AB6EE000AC54880ED000A16
:100430001CE0B248008802280EDBB04800880A2879
:100440000ADC9FEDC10ABC4880ED000A9FEDBF0A9F
:10045000BB4880ED000A09E09FEDBA0AB64880ED7E
:10046000000AB6EE000AB64880ED000A9620B849A8
:100470000880B849088007AA0021B74800681BF027
:100480009BFFFEE207AA0021B34800681BF07EFE36
:1004900098480078012803D1AD49AE4804F04AFAE3
:1004A0000020AE49088005F070FA1021AC481DF01C
:1004B0006DF9AC4908704021AB481DF067F9A949B6
:1004C00088702021A8481DF061F9A649C870102144
:1004D000A5481DF05BF9A34908710821A2481DF049
:1004E00055F9A04948714FF48041A0481DF04EF9DC
:1004F0009C4988737F48007806287DD2DFE800F0A9
:100500007C036C8BA9F00020994908707A49D1EDE1
:10051000020AB0EE600A794908788E49098805F028
:100520002CF97648008880B1744800881F280CD0C8
:100530007148D0ED020AB0EE600ADFED8E0A07F0D6
:10054000B2F98D4880ED010A04E09FED8A0A8A48DD
:1005500080ED010A89481FF0AEF8894908706848A3
:100560001FF0A9F8874908700BF06AFD012808D030
:1005700061480BF0D3FE012803D00BF013FF0128D4
:1005800016D15E4800882C2812D05B480BF0C6FEBE
:10059000012803D00BF006FF012802D102205549A3
:1005A00008700BF04DFD01280ED10BF0D3FD0BE0D0
:1005B0005F480078012802D104F01CF804E05C4890
:1005C000007808B904F0E6F819F003F84FF4005188
:1005D0006D481DF0F5F81CE209F05CFB0521484868
:1005E00001F0C9FE07F04FF818F0F0FE07F0C1FC6B
:1005F00018F086FE5B4800E00AE2807928B159488D
:10060000C07910B903203B4908704FF400515E488F
:100610001DF0D6F8FDE14FF400515B481DF0D0F815
:1006200050488079012801D107F073F84D4880794E
:10063000042801D107F05FF84A488079032801D1E6
:1006400007F075F807F095FC18F002FF09F022FB9F
:10065000DFE144488079012805D14248807810B90B
:100660000220244908703F488079042805D13D487C
:10067000407910B902201F4908703A488079032850
:1006800005D13848007910B902201A49087007F0DE
:1006900070FC34488078012805D13248407910B97F
:1006A00030480079E8B12F48807828B92D48407942
:1006B00010B92C480079A0B12A48807830B929486F
:1006C0004079012802D12748007950B12548807827
:1006D00040B92448407928B922480079012855E0DA
:1006E00063E054E056E00000D40000200800002041
:1006F000360000200E000020CC6800200C010020F5
:10070000006800402E000020300000202F00002054
:1007100031000020B0000020A80EA3442564090089
:10072000989E002086350020089D00200050004043
:100730000D0000203333333F100100206666E63F92
:10074000140100203333B33ECDCC4C3F9A99D93FAE
:1007500010000020120000200000002034000020C3
:100760000010024028A00020000C024000040240BB
:100770007800002000000000B46800200064004001
:1007800014000020150000200008024002D10AF0E9
:1007900078F802E00220FE4908700020FD498872C6
:1007A0004873C872FC49087033E1B1EE000AFB4897
:1007B00080ED670AB1EE000A80EDDB0AB1EE000AB7
:1007C00000F5687080ED670AB1EE000A00F5E87088
:1007D00080ED670AF24991F8250091ED1C2AF0EEB0
:1007E000421A91ED1C2AB0EE421A91ED1B2AF0EE4E
:1007F000420A91ED1B2AB0EE420A06F072F8E9496E
:1008000091F8250091ED1C2AF0EE421A91ED1C2A78
:10081000B0EE421A91ED1B2AF0EE420A91ED1B2A2E
:10082000B0EE420A06F05DF8DF4991F8250091ED3F
:100830001C2AF0EE421A91ED1C2AB0EE421A91EDFC
:100840001B2AF0EE420A91ED1B2AB0EE420A06F096
:1008500048F8D64991F8250091ED1C2AF0EE421A8D
:1008600091ED1C2AB0EE421A91ED1B2AF0EE420ADD
:1008700091ED1B2AB0EE420A06F033F8C548007825
:10088000012847D1C3488079012805D1C148807823
:1008900010B90220BE490870BE488079042805D1ED
:1008A000BC48407910B90220B9490870B94880792C
:1008B000032805D1B748007910B90220B44908705F
:1008C000B4488078012805D1B248407910B9B148C0
:1008D0000079F8B1AF48807828B9AE48407910B9AE
:1008E000AC480079B0B1AB48807830B9A9484079BC
:1008F000012802D1A748007960B1A648807830B9B4
:10090000A448407918B9A3480079012802D00220F0
:100910009F4908709F48807840B19E48407928B12F
:100920009C48007910B102209949087000231A46AA
:1009300005219F4802F002FB9E480078012802D161
:1009400006F0AFFE01E006F0BAFE09F0A3F907F0E9
:1009500010FB9048807A012807D18E48007820B992
:100960008C48407B401C8B4948738A48407B012857
:100970001CDD8848C07AC8B905218D4801F09DFC6E
:1009800001208449C87200204873887204F0D4FBA7
:1009900080488079042802D101207F4908707D4871
:1009A0008079032802D101208349087079480078B2
:1009B00028B978484078012801D17649887275486D
:1009C000C07A012823D17348407B052817DB9FEDAF
:1009D0007B0A724880ED670A9FED780A80EDDB0A9A
:1009E0009FED760A00F5687080ED670A9FED730A47
:1009F00000F5E87080ED670A0120654908706548D8
:100A0000807B20B96348407B401C6249487300E00A
:100A100000BF00BF5F4800785E4948700846807993
:100A2000C87108F01CFF6648007866490978664A74
:100A3000B2F90020654B1B88CDE90332CDE90510E2
:100A40006348008863A14FF4C872664BCDE900216A
:100A50000290654A6549664818F063FB0CF084FD16
:100A6000644800885EA14FF4C8725E4BCDE9002156
:100A700002905D4A5D495E4818F053FB00205D49D5
:100A80000880FFE400B585B09DF8100004904FF495
:100A9000A0601DF09DF94FF46123574A5149544815
:100AA00018F0A2F84FF46123544A5549554818F0FC
:100AB0009BF84FF4612003F04DFA4FF4E13003F05E
:100AC00099F84FF4E13003F0EFF94FF4E13003F01F
:100AD000E8F8A72144F61F6001F0D3FA532144F649
:100AE0001F6001F013FA532144F61F6001F080FAF1
:100AF000A72144F61F6001F016FB002002235322B9
:100B000063210090580700F084FE00214FF08040E0
:100B10001DF004FB002003465322632100903A4855
:100B200000F077FE4FF47A7138481DF05CFC4FF40A
:100B30007A7137481DF05BFC4FF47A7135481DF02F
:100B400052FC4FF47A7133481DF051FC4FF40070A1
:100B50004310314A4FF4FA710090304803F022FB01
:100B6000402020232C4A4FF4FA710090104803F0E3
:100B700019FB08F047FF06F0EFFD05F08FFF06F0C8
:100B80000EFE18F05BFB18F0ACFB25484AE00000B5
:100B90000E00002028A00020160000206869002018
:100BA00024660020C86600206C67002010680020C2
:100BB000006800400D000020520000200000614449
:100BC000150000201400002050000020120000201A
:100BD0000C01002025642025642025642025642044
:100BE00025642000789B002084350020E8990020AF
:100BF000004C0040340000204F3D0008553F0008E5
:100C0000989E002000500040000400400000014079
:100C1000000401400008004000040240006400405D
:100C2000FF3EAB0100F0F0FD1021FD481CF0AEFDD1
:100C3000FC4908700221FC481CF0A8FDFB49087023
:100C40004FF48061FA481CF0A1FDFA4988704021F8
:100C5000F5481CF09BFDF34988702021F2481CF0F8
:100C600095FDF049C8701021EF481CF08FFDED494B
:100C700008710821EC481CF089FDEA49487180217F
:100C8000E9481CF083FD012804D1EB49087006F007
:100C900008FD04E00020E849087006F010FDE14876
:100CA000007858B9DF48407940B9DE48807828B9E3
:100CB000DC48C07810B9DB48007908B106F037FD90
:100CC000DA48007801280DD1092006F0ABF90A2096
:100CD00006F0A8F90B2006F0A5F90C2006F0A2F901
:100CE00004F0EDF9CF48007801287CD1CD48407957
:100CF0000128FAD1B420D1490880D14908800620C2
:100D0000D04908701F20D04908800420C549887147
:100D1000CE4908709FEDCE0ACE4880ED230A9FEDA4
:100D2000CC0ACD4880ED230A9FEDC90ACB4880ED5F
:100D3000230A9FEDC70ACA4880ED230A9FEDC90A1E
:100D4000C44880ED240A9FEDC70AC34880ED240AF9
:100D50009FEDC40AC14880ED240A9FEDC20AC04835
:100D600080ED240A9FEDC00ABA4880ED220A9FED6B
:100D7000BE0ABA4880ED220A9FEDBC0AB64880ED53
:100D8000220A9FEDBA0AB64880ED220ADFEDB80AC2
:100D90009FEDB80A012005F036FBB74880ED6D0ADB
:100DA000C0ED6E0ADFEDB20A9FEDB20A022005F037
:100DB0002AFBB14880EDE10AC0EDE20ADFEDAC0AA2
:100DC0009FEDAC0A032005F01EFBAC4880ED6D0AD8
:100DD000C0ED6E0ADFEDA60A9FEDA60A042005F01D
:100DE00012FBA74800E02FE080ED6D0AC0ED6E0A0F
:100DF00091480078012811D1DFEDA23A9FEDA23A87
:100E0000DFEDA02A9FEDA02ADFED9E1A9FED9E1A2E
:100E1000DFED9C0A9FED9C0A09F0A6F98648007850
:100E200048BBDFED983A9FED983ADFED962A9FEDAB
:100E3000962ADFED941A9FED941ADFED920A9FED4A
:100E4000920A09F091F916E0A0207C4908807C49BB
:100E50000880DFED8E3A9FED8E3ADFED8C2A9FED14
:100E60008C2ADFED8A1A9FED8A1ADFED880A9FED42
:100E7000880A08F031FF08F02FFE04AA00218548F7
:100E800000681BF099FA4BE004AA00218148006831
:100E90001BF07CF965480078012801D118F03AFC74
:100EA0000CF0A2FD04F071FD04F0F9FD07F061F80B
:100EB0000BF0C6F8012802D10BF04CF913E05B48A7
:100EC000007801280AD17448007810B909F0D9FCDB
:100ED00001E017F007FE18F065FC04E053480078C5
:100EE00008B909F0CEFC6D481EF0E5FB6C490870AE
:100EF0006C481EF0E0FB6C490870084600786849B1
:100F000009786AA24FF4C873CDE90032CDE9021026
:100F1000684B694A69496A4818F003F90BF089FB84
:100F20005D4800780028AFD0404800780128ABD059
:100F300017F0D8FDB1EE000A4F4880ED670AB1EE18
:100F4000000A80EDDB0AB1EE000A4C4880ED670A2A
:100F5000B1EE000A4A4880ED670A06F0BEFB04F0D5
:100F6000AEF806F0E4FB574800F04EFC9FED560A41
:100F7000564880ED000A90ED000ADFED550A20EE9C
:100F8000200ADFED540A80EE201A9FED510A31EE5F
:100F9000000ABDEEC00A504880ED000A0068411EFC
:100FA0004E481DF020FA4C480068411E4C481DF088
:100FB0001EFA49480068411E4A481DF014FA464886
:100FC0000068411E47481DF012FA0120464908708A
:100FD00000BF05F076FD0028FBD000201149887184
:100FE00001201A4908709FED410A234880ED670AE5
:100FF0009FED3E0A80EDDB0A9FED3C0A1F4880ED25
:10100000670A9FED3A0A1E4880ED670A01218807AA
:101010001DF084F8FF201BF08BFD05B000BD000023
:101020000010024028A00020000C024019000020FF
:1010300000040240640000200D0000201000002089
:10104000120000204E0000200C0100200E000020A5
:101050007C6CB93F24660020C86600206C670020C5
:1010600010680020CCC60540663BD4BF663BD43F29
:1010700084CE0540874BBA3F68690020086D002088
:10108000D86E002057ACD0426E233C42773EB4422B
:10109000BEB00D4204000020780000200064004033
:1010A0001400002000680040150000202564202561
:1010B00064200000789B002084350020E8990020FF
:1010C000004C0040FF3EAB01000020422000002009
:1010D00000007A440000C8421C00002000000140CB
:1010E00000040140000800400C00002000006144A2
:1010F00010B500BF00201AF0B7FF114908600020AA
:101100001AF0B2FF0F49086000201AF0ADFF0E4937
:10111000086014230D4A00210D481BF04EFA0446C6
:101120001E230C4A00210C481BF047FA04462823D2
:101130000A4A00210A481BF040FA044610BD00008C
:10114000000000200400002008000020203E0020B5
:10115000850A0008205E0020E703000820660020C2
:10116000E50200083EB518F02DFF0446FE48007861
:10117000401CFD490870204618F028FF002002900E
:101180000190042000906B4601AA02A9F74803F0E1
:1011900009FA002005E001A9095CF54A1154411C37
:1011A000C8B20328F7DD40F223220298811A904248
:1011B0005CD00ADCA0F2062000287BD001287AD07F
:1011C0001B280BD01C2877D12CE0012978D00229CC
:1011D00074D0032973D00429F5D1B5E0E448006840
:1011E000404200EE100AB8EEC00A9FEDE21AC0EECF
:1011F000010A9FEDE11A80EE810ADFEDE00A80EE40
:10120000201AB0EE000A21EE000ADFEDDD0A20EE22
:10121000200ADC4880ED220ADB480068801EDA499B
:101220000860D7E0D2480068404200EE100AB8EEED
:10123000C00A9FEDD01AC0EE010A9FEDCF1A80EED2
:10124000810ADFEDCE0A80EE201AB0EE000A21EE10
:10125000000ADFEDCB0A20EE200ACC4880ED220AFE
:10126000C9484068801EC8494860B3E0C04800686B
:10127000404200EE100AB8EEC00A9FEDBE1AC0EE62
:10128000010A9FEDBD1A80EE810ADFEDBC0A80EEF7
:10129000201AB0EE000A21EE000ADFEDB90A20EEB6
:1012A000200ABB4880ED220AB7488068801EB649F4
:1012B00088608FE05FE075E08BE001E024E02CE0E7
:1012C000AB480068404200EE100AB8EEC00A9FED3D
:1012D000A91AC0EE010A9FEDA81A80EE810A9FEDBF
:1012E000A71AC0EE010AB0EE000A20EE800ADFED78
:1012F000A40A20EE200AA74880ED220AA248C0686E
:10130000801EA149C86065E0994890ED000AB8EEDA
:10131000C00AA14880ED040A5CE0954801689F4836
:10132000416190ED050AF8EEC00AB0EE081A80EEB1
:10133000810A9FED9B1AC0EE010A9FED9A0A20EEEA
:10134000800A80ED040A45E08948016896484161B9
:1013500090ED050AF8EEC00AB0EE081A80EE810A98
:101360009FED8F1AC0EE010A9FED8E0A20EE800AD3
:1013700080ED040A2EE07E4801688848C16090ED47
:10138000030AF8EEC00AB0EE081A80EE810ADFED1B
:10139000840A80EE201A9FED830A21EE000A80ED78
:1013A000020A17E0724801687F48C16090ED030AA5
:1013B000F8EEC00AB0EE081A80EE810ADFED780A76
:1013C00080EE201A9FED770A21EE000A80ED020AD6
:1013D00000E000BF00BF754964481EF0C2F97349C0
:1013E000491C62481EF0BDF97049C91C5F481EF0D7
:1013F000B8F96F495D481EF0B4F96E495B481EF0BC
:10140000B0F96D4959481EF0ACF96B49083157489D
:101410001EF0A7F9694955481EF0A3F968495348D9
:101420001EF09FF96649083150481EF09AF919F0EC
:10143000B8FA3EBD10B518F0C5FD04464A4800781C
:10144000401C49490870204618F0C0FD012188075A
:101450001DF093FA012822D15A480088401E5949AC
:1014600008800846008838B9574800681AF049FFD4
:10147000564800885349088055480078401E544912
:1014800008700846007830B9524800681AF039FFF1
:1014900032204F490870012188071DF07FFA19F0AA
:1014A00080FA10BD10B518F08DFD04462E48007866
:1014B000401C2D490870204618F088FD012146483F
:1014C0001DF05BFA012803D1012143481DF066FAA3
:1014D00019F067FA10BD10B518F074FD04462248E3
:1014E0000078401C20490870204618F06FFD01214B
:1014F0003A481DF042FA012803D1012137481DF076
:101500004DFA19F04EFA10BD10B518F05BFD044607
:1015100015480078401C14490870204618F056FD04
:1015200001212F481DF029FA012803D101212C485F
:101530001DF034FA19F035FA10BD10B518F042FD5F
:10154000044609480078401C07490870204618F0F6
:101550003DFD012123481DF010FA01287CD12248CD
:101560000088401C204941E0CD3500200068004043
:10157000380000200000004600001042B5B434409E
:10158000DA0F494024660020F0980020C866002049
:101590006C6700201068002028A00020009900201F
:1015A0009A9999417DD0333D749900200100F01043
:1015B0007000F03003000012080000320300001435
:1015C000080000341000002000000020120000205D
:1015D0003C00002008000020000001400004014001
:1015E000000C0040000400403400002008807548D2
:1015F0000088401C7349088073480078012804D192
:1016000072480068401C7149086070480068704961
:10161000884205DD00206D49086002206A49087093
:101620006C480078012804D16B480068401C6A4966
:1016300008606A480078401E6849087008460078CB
:1016400030B9674800681AF05CFE9620634908705C
:10165000012164481DF0A2F919F0A3F910BD10B5DD
:1016600018F0B0FC044660480078401C5E490870E1
:10167000204618F0ABFC01215C481DF07EF90128E2
:1016800003D1012159481DF089F919F08AF910BDDB
:1016900010B518F097FC044653480078401C524996
:1016A0000870204618F092FC40F2255150481DF079
:1016B0002AFC012804D140F225514D481DF05AFC66
:1016C00019F06FF910BD10B518F07CFC04464648BF
:1016D0000078401C44490870204618F077FC40F21E
:1016E000255144481DF00FFC012804D140F225513A
:1016F00040481DF03FFC19F054F910BD10B518F02A
:1017000061FC044638480078401C37490870204680
:1017100018F05CFC40F2255137481DF0F4FB01281D
:1017200005D140F2255134481DF024FC37E0282132
:1017300031481DF01FFC40F227712F481DF01AFCA4
:1017400040F226612C481DF015FC40F225312A4854
:101750001DF010FC40F2244127481DF00BFC40F620
:10176000460125481DF006FC40F66A1122481DF08E
:1017700001FC602120481DF0FDFB4FF458711E480C
:101780001DF0F8FB4FF418711B481DF0F3FB4FF4EC
:10179000B07119481DF0EEFB17481DF008FB19F059
:1017A00000F910BD00BFFEE703E014A1104802F0ED
:1017B00071FCFAE700BFFEE700BFFEE700BFFEE7EF
:1017C00070477047360000200C00002048000020C1
:1017D000605B030044000020400000204C0000201B
:1017E0000400002000040040CD3500200008004027
:1017F000004C004000100140005000402048617241
:10180000644661756C74000000BF401E0028FCD166
:1018100070472DE9FF4104460D4616461F46DDF888
:101820002880F949601A8C4270D01ADCF749A4EB81
:1018300001008C426CD00ADCB4F1804F4ED0F448E9
:101840002044002852D0B0F5806F71D156E0B0F539
:10185000806F65D0B0F5006F6CD0B0F5406FF4D1FB
:1018600070E0B0F5923F21D009DCB0F5806F7AD0FE
:10187000B0F5644F0AD0B0F5684F7CD10EE0B0F5FA
:10188000943F1BD0B0F5963F75D11FE0012108466B
:101890001CF0A4F919208DF800006DE00121022050
:1018A0001CF09CF92C208DF8000065E00121080453
:1018B0001CF094F918208DF800005DE0012119203A
:1018C0001CF08CF92C208DF8000055E001218804D3
:1018D0001CF084F91A208DF800004DE00121084623
:1018E0001CF06BF91C208DF8000045E0012102205E
:1018F0001CF063F91D208DF800003DE0012104205B
:101900001CF05BF91E208DF8000035E023E0FFE7B6
:10191000012108201CF051F932208DF800002BE045
:10192000012110201CF049F936208DF8000023E039
:1019300021E0FFE7012120201CF03FF937208DF83E
:10194000000019E0012140201CF037F92B208DF810
:10195000000011E007E0012180201CF02EF92C206E
:101960008DF8000008E0012108021CF026F92D2066
:101970008DF8000000E000BF00BF0295ADF80460E4
:101980000020ADF80C00ADF8060001A920461CF0BF
:101990003CFB012120461DF001F8012211462046A2
:1019A0001CF0D4FFF8B28DF8010008F0FF008DF8AC
:1019B000020001208DF8030068461CF00EFA012198
:1019C00020461CF0ABFBBDE8FF81FEB504460D468A
:1019D0002E468D49601A8C4270D01ADC8B49A4EBDC
:1019E00001008C426CD00ADCB4F1804F4ED08848A4
:1019F0002044002852D0B0F5806F71D156E0B0F588
:101A0000806F65D0B0F5006F6CD0B0F5406FF4D149
:101A100070E0B0F5923F21D009DCB0F5806F7AD04C
:101A2000B0F5644F0AD0B0F5684F7CD10EE0B0F548
:101A3000943F1BD0B0F5963F75D11FE001210846B9
:101A40001CF0CCF8A820ADF800006DE001210220C8
:101A50001CF0C4F8A820ADF8000065E001210804DE
:101A60001CF0BCF8A820ADF800005DE0012148049E
:101A70001CF0B4F8A820ADF8000055E0012188045E
:101A80001CF0ACF8A820ADF800004DE0012108469C
:101A90001CF093F85420ADF8000045E0012102202D
:101AA0001CF08BF85420ADF800003DE0012104202B
:101AB0001CF083F85420ADF8000035E023E0FFE788
:101AC000012108201CF079F85420ADF800002BE02B
:101AD000012110201CF071F85420ADF8000023E023
:101AE00021E0FFE7012120201CF067F85420ADF829
:101AF000000019E0012140201CF05FF85420ADF8EF
:101B0000000011E007E0012180201CF056F854206D
:101B1000ADF8000008E0012108021CF04EF8542046
:101B2000ADF8000000E000BF00BF012001900020E0
:101B3000ADF80800ADF80200694620461CF065FAD1
:101B4000012120461CF0EAFA4FF6FF70811B204667
:101B50001CF0A4FA03E020461CF0A4FA86B24FF66B
:101B6000FF708642F7DB002120461CF0D7FAFEBD4D
:101B7000FEB504460D462E462349601A8C4276D0A7
:101B80001ADC2249A4EB01008C427CD00ADCB4F1BF
:101B9000804F5AD01E48204400285FD0B0F5806F97
:101BA00067D167E0B0F5806F79D0B0F5006F7FD076
:101BB000B0F5406FF4D184E0B0F5923F2AD009DC53
:101BC000B0F5806F6AD0B0F5644F0AD0B0F5684FB9
:101BD0004FD10FE0B0F5943F25D0B0F5963F48D1F6
:101BE0002AE0012108461BF0F9FF44F2A010ADF8ED
:101BF000000082E0012102201BF0F0FF44F2A0105F
:101C0000ADF8000079E00000001C0040000C00402E
:101C100000FCFFBF012108041BF0E0FF44F2A0100C
:101C2000ADF8000069E0012148041BF0D7FF44F241
:101C3000A010ADF8000060E0012188041BF0CEFF89
:101C400044F2A010ADF8000057E0012108461BF057
:101C5000B4FF42F2D000ADF800004EE001210220B6
:101C60001BF0ABFF42F2D000ADF8000045E031E0E0
:101C700009E041E0012104201BF09FFF42F2D00067
:101C8000ADF8000039E0012108201BF096FF42F278
:101C9000D000ADF8000030E001E009E023E00121D0
:101CA00010201BF08AFF42F2D000ADF8000024E0C3
:101CB000012120201BF081FF42F2D000ADF800008E
:101CC0001BE0012140201BF078FF42F2D000ADF86C
:101CD000000012E0012180201BF06FFF42F2D000D3
:101CE000ADF8000009E0012108021BF066FF42F296
:101CF000D000ADF8000000E000BF00BF012001905F
:101D00000020ADF80800ADF80200694620461CF03E
:101D10007CF9012120461CF001FA4FF6FF70811B6F
:101D200020461CF0BBF903E020461CF0BBF986B24C
:101D30004FF6FF708642F7DB002120461CF0EEF9DB
:101D4000FEBD70B506460C46002500BF04E00A2122
:101D50003046FFF70DFF6D1CA542F8D370BD30B5BE
:101D60008BB004460D46012102201BF026FF012105
:101D700002201BF0EFFE02220521FE481BF02FFD82
:101D80002020099002208DF8280003208DF82900DA
:101D900000208DF82A0001208DF82B0009A9F548B4
:101DA0001BF092FCA8B2ADF818000020ADF81A00A4
:101DB0000794ADF8200006A9EF481CF026F9602032
:101DC000ADF804000120ADF806000020ADF81000C9
:101DD00001A9E9481CF0E7F90821E7481CF040FB9D
:101DE0000121E5481CF07CF90121E3481CF096F93B
:101DF0006421E1481CF0F9FA0BB030BD30B58BB06E
:101E000004460D46012104201BF0D7FE01210820C5
:101E10001BF0A0FE02220C21D8481BF0E0FC02229D
:101E20000E21D6481BF0DBFC4FF4A04009900220A5
:101E30008DF8280003208DF8290000208DF82A0055
:101E400001208DF82B0009A9CC481BF03DFCA8B25D
:101E5000ADF818000020ADF81A000794ADF8200086
:101E600006A9C7481CF0D1F86020ADF80400012095
:101E7000ADF806000020ADF8100001A9C0481CF024
:101E800059F901A9BE481CF0DBF90821BC481CF037
:101E9000DEFA0821BA481CF0F0FA0121B8481CF01B
:101EA0001FF90121B6481CF039F96421B4481CF02F
:101EB0009AFA6421B2481CF09AFA0BB030BD7FB593
:101EC00005460C46012120201BF077FE0195ADF858
:101ED00000400020ADF80800ADF802006946A948AE
:101EE0001CF093F801221146A6481CF02FFD372064
:101EF0008DF80C0000208DF80D0001208DF80E00EB
:101F00008DF80F0003A81BF068FF7FBD30B58BB0C4
:101F100004460D46012104201BF04FFE012108203C
:101F20001BF018FE02220F2194481BF058FC0222DD
:101F30000E2192481BF053FC02220D218F481BF00A
:101F40004EFC02220C218D481BF049FC4FF47040DE
:101F5000099002208DF8280003208DF82900002028
:101F60008DF82A008DF82B0009A984481BF0ACFBE2
:101F7000A8B2ADF818000020ADF81A000794ADF82B
:101F8000200006A97E481CF040F87020ADF804003F
:101F90000120ADF806000220ADF8100001A9784834
:101FA0001CF0B4F901A976481CF04AF901A974485B
:101FB0001CF0F9F801A972481CF0BCF8082170481F
:101FC0001CF064FA08216E481CF057FA08216C488E
:101FD0001CF046FA08216A481CF039FA01216848C9
:101FE0001CF07EF8012166481CF098F80BB030BD5B
:101FF00030B58BB004460D46012108201BF0DDFDF5
:10200000012108461BF0A6FD022201215E481BF0BB
:10201000E6FB022009908DF8280003208DF82900A6
:1020200000208DF82A008DF82B0009A956481BF0D6
:102030004BFBA8B2ADF818000020ADF81A000794C9
:10204000ADF8200006A951481BF0DFFF7020ADF865
:1020500004000120ADF806000220ADF8100001A92F
:102060004A481CF0A0F8082148481CF0F9F9012161
:1020700046481CF035F8012144481CF04FF80BB0DD
:1020800030BD30B58BB004460D46012108461BF02B
:10209000A5FD012108461BF05DFD012208213A48FB
:1020A0001BF09DFB4FF48070099002208DF82800F2
:1020B00003208DF8290000208DF82A0001208DF8DA
:1020C0002B0009A930481BF0FFFAA8B2ADF81800A0
:1020D0000020ADF81A000794ADF820008DF822001A
:1020E00006A92B481BF091FF7020ADF804000120D9
:1020F000ADF806000220ADF8100001A924481CF03C
:1021000019F8082122481CF0A2F9012120481BF0EF
:10211000E7FF01211E481CF0F2FB01211C481BF0C7
:10212000FDFF0BB030BD30B58BB004460D4601212C
:1021300002201BF053FD012104201BF00BFD0322A4
:10214000082114481BF04BFB4FF4807009900220CB
:102150008DF8280003208DF8290000208DF82A0032
:102160008DF82B0009A90B481BF0AEFAA8B2ADF808
:10217000180011E00004024000040040000C02407E
:10218000000800400014004000000240000C004025
:1021900000000140000802400020ADF81A0007943A
:1021A000ADF8200006A911481BF02FFF7020ADF8F4
:1021B00004000120ADF806000220ADF8100001A9CE
:1021C0000A481CF03DF8082108481CF056F9012186
:1021D00006481BF085FF012104481CF090FB0121FB
:1021E00002481BF09BFF0BB030BD00000004014013
:1021F0007CB504460D461646C4F30900002839D1C3
:10220000A012A0F580108038092833D2DFE800F052
:10221000050A0F14191E23282D00012108461BF062
:1022200099FC28E0012102201BF094FC23E001210D
:1022300004201BF08FFC1EE0012108201BF08AFC0B
:1022400019E0012110201BF085FC14E00121202061
:102250001BF080FC0FE0012140201BF07BFC0AE01A
:10226000012180201BF076FC05E0012108021BF013
:1022700071FC00E000BF00BF00958DF804600020F5
:102280008DF806008DF8070002208DF805006946DC
:1022900020461BF019FA7CBD7047704770477047A5
:1022A0001CB50446FE4903C9CDE9000108236A466E
:1022B0000021204602F04AF91CBDF0B587B0054662
:1022C0000C46F749083103C9CDE9050104F5407012
:1022D0000090019000208DF808008DF8090008207A
:1022E0008DF80A000598C0B28DF80B000598010A18
:1022F0008DF80C100598010C8DF80D100598000E46
:102300008DF80E000698C1B28DF80F100698010ADC
:102310008DF810100698010C8DF811100698000E1B
:102320008DF81200694628461CF0C6FF07460026B5
:1023300018E0701C86B240F6B830864211DDD948EC
:10234000854205D12246D8A1DC4801F0A3FE07E072
:10235000DB48854204D12246DAA1D84801F09AFE32
:1023600006E00026394628461DF03EF80128E0D157
:1023700000BF07B0F0BDF0B587B005460C46C849B0
:10238000103103C9CDE9050104F5407000900190BA
:1023900000208DF808008DF8090008208DF80A004B
:1023A0000598C0B28DF80B000598010A8DF80C1045
:1023B0000598010C8DF80D100598000E8DF80E0093
:1023C0000698C1B28DF80F100698010A8DF810100A
:1023D0000698010C8DF811100698000E8DF8120069
:1023E000694628461CF068FF0746002618E0701C66
:1023F00086B240F6B830864211DDAA48854205D142
:102400002246A9A1AD4801F045FE07E0AC4885424F
:1024100004D12246ABA1A94801F03CFE06E000260B
:10242000394628461CF0E0FF0128E0D100BF07B084
:10243000F0BD2DE9F0478AB006460D469046994614
:10244000974B2833D3E901021968DB6807AC0DC448
:10245000069105F540700190029000208DF80C0067
:102460008DF80D0008208DF80E00CDF81C80CDF8F9
:10247000249000245EE006A810F834008DF80F00C8
:1024800006A830F83400010A8DF8101006A850F89C
:102490003400010C8DF8111006A850F83400000E1D
:1024A0008DF8120006A800EBC40001798DF8131016
:1024B00006A800EBC4008088010A8DF8141006A855
:1024C00000EBC4004068010C8DF8151006A800EB65
:1024D000C4004068000E8DF8160001A930461CF0BB
:1024E000EBFE07464FF0000A1BE00AF101001FFA5D
:1024F00080FA40F6B830824511DD6A48864205D13F
:102500002A4669A16D4801F0C5FD07E06C48864286
:1025100004D12A466BA1694801F0BCFD07E04FF0E9
:10252000000A394630461CF05FFF0128DDD100BFAC
:10253000601CC4B2022C9EDB0AB0BDE8F0872DE916
:10254000F04188B005460C4616465549203103C96E
:10255000CDE9060104F540700190029000208DF84D
:102560000C008DF80D0008208DF80E0007960698D7
:10257000C0B28DF80F000698010A8DF81010069869
:10258000010C8DF811100698000E8DF812000798B6
:10259000C1B28DF813100798010A8DF8141007982E
:1025A000010C8DF815100798000E8DF8160001A982
:1025B00028461CF081FE8046002718E0781C87B270
:1025C00040F6B830874211DD3648854205D12246B3
:1025D00035A13A4801F05EFD07E03948854204D153
:1025E000224638A1354801F055FD06E00027414656
:1025F00028461CF0F9FE0128E0D100BF08B0BDE874
:10260000F0812DE9F04188B005460C461646244974
:10261000183103C9CDE9060104F54070019002901C
:1026200000208DF80C008DF80D0008208DF80E00AC
:1026300007960698C0B28DF80F000698010A8DF82B
:1026400010100698010C8DF811100698000E8DF8E8
:1026500012000798C1B28DF813100798010A8DF87F
:1026600014100798010C8DF815100798000E8DF8BE
:10267000160001A928461CF01FFE8046002736E000
:10268000781C87B240F6B83087422FDD0548854276
:1026900022D1224604A1094801F0FCFC25E00000FB
:1026A000282102080064004063616E312025642007
:1026B00073656E64206572720D0A0000004C004064
:1026C0000068004063616E322025642073656E648B
:1026D000206572720D0A0000FE48854205D122462F
:1026E000AFF22001FC4801F0D5FC06E0002741468E
:1026F00028461CF079FE0128C2D100BF08B0BDE811
:10270000F0812DE9F04104460D4616461F4602228F
:1027100029462046FFF775FF002229462046FFF78D
:102720000EFF3B46324629462046FFF782FEBDE8B3
:10273000F0812DE9F04188B005460C461646E74980
:1027400003C9CDE9060104F5407001900290002014
:102750008DF80C008DF80D0008208DF80E000796FE
:102760000698C0B28DF80F000698010A8DF8101077
:102770000698010C8DF811100698000E8DF81200C5
:102780000798C1B28DF813100798010A8DF814103C
:102790000798010C8DF815100798000E8DF816009B
:1027A00001A928461CF088FD804600271AE0781C05
:1027B00087B240F6B830874213DDC948854206D15A
:1027C0002246AFF21C11C44801F064FC08E0C14885
:1027D000854205D12246AFF21411BF4801F05AFCE0
:1027E00006E00027414628461CF0FEFD0128DED108
:1027F00000BF08B0BDE8F0812DE9F04104460D4668
:1028000016461F46DDF81880052229462046FFF7A8
:10281000F8FE002229462046FFF791FE3B4632464D
:1028200029462046FFF705FE424629462046FFF787
:1028300080FFBDE8F0812DE9F04F87B083460D465B
:1028400090469946002005900690002405F54070BA
:102850000090019000208DF808008DF809000820F4
:102860008DF80A0000274BE058F8270005A941F829
:102870002400601CC4B204F0020000283FD0059878
:10288000C0B28DF80B000598010A8DF80C10059860
:10289000010C8DF80D100598000E8DF80E000698AD
:1028A000C1B28DF80F100698010A8DF81010069825
:1028B000010C8DF811100698000E8DF81200694673
:1028C00058461CF0F9FC06464FF0000A0EE00AF1EB
:1028D00001001FFA80FA40F6B830824504DD81A17C
:1028E0007D4801F0D7FB07E04FF0000A314658461B
:1028F0001CF07AFD0128EAD100BF002400BF7F1C34
:102900004F45B1DB012C3BD10598C0B28DF80B00CF
:102910000598010A8DF80C100598010C8DF80D1022
:102920000598000E8DF80E000698C1B28DF80F10B4
:102930000698010A8DF810100698010C8DF81110F8
:102940000698000E8DF81200694658461CF0B4FC3B
:10295000064600270BE0781C87B240F6B830874265
:1029600004DD60A15C4801F095FB06E000273146DC
:1029700058461CF039FD0128EDD100BF002400BFEE
:1029800007B0BDE8F08F2DE9F04188B006460C464F
:1029900015465249103103C9CDE9060104F54070CE
:1029A0000190029000208DF80C008DF80D00082099
:1029B0008DF80E00A8780006697840EA0140297871
:1029C00040EA012007900698C0B28DF80F000698E3
:1029D000010A8DF810100698010C8DF81110069858
:1029E000000E8DF812000798C1B28DF813100798E9
:1029F000010A8DF814100798010C8DF8151007982E
:102A0000000E8DF8160001A930461CF055FC8046DA
:102A100000271AE0781C87B240F6B830874213DDF1
:102A20002F48864206D12246AFF284312A4801F06F
:102A300031FB08E02748864205D12246AFF27C31BF
:102A4000254801F027FB06E00027414630461CF0F0
:102A5000CBFC0128DED100BF08B0BDE8F0812DE934
:102A6000F04106460F4614461D462246394630467A
:102A7000FFF789FFA3782A4639463046FFF7DBFE89
:102A8000BDE8F081F0B587B005460C461349183112
:102A900003C9CDE9050104F54070009001900020C4
:102AA0008DF808008DF8090008208DF80A000598B7
:102AB000C0B28DF80B000598010A8DF80C1005982E
:102AC000010C8DF80D100598000E8DF80E0006987B
:102AD000C1B20FE000680040004C004090210208A5
:102AE0000064004063616E2073656E6420657272DD
:102AF0000D0A00008DF80F100698010A8DF81010CD
:102B00000698010C8DF811100698000E8DF8120031
:102B1000694628461CF0D0FB074600261AE0701CC8
:102B200086B240F6B830864213DDFA48854206D1B7
:102B30002246AFF28C41F84801F0ACFA08E0F748C1
:102B4000854205D12246AFF28441F34801F0A2FA52
:102B500006E00026394628461CF046FC0128DED156
:102B600000BF07B0F0BD2DE9F04106460F46144600
:102B70001D46224639463046FFF705FFA3782A4610
:102B800039463046FFF757FE39463046FFF77AFFA1
:102B9000BDE8F0812DE9F04387B005460C461646A6
:102BA0001F4600200590069004F5487000900190A3
:102BB00000208DF808008DF8090008208DF80A0023
:102BC000059606970598C0B28DF80B000598010A86
:102BD0008DF80C100598010C8DF80D100598000E5D
:102BE0008DF80E000698C1B28DF80F100698010AF4
:102BF0008DF810100698010C8DF811100698000E33
:102C00008DF81200694628461CF056FB81464FF0AD
:102C100000081DE008F101001FFA80F840F6B83006
:102C2000804513DDBB48854206D12246AFF288516C
:102C3000B94801F02FFA08E0B848854205D122468C
:102C4000AFF28051B44801F025FA07E04FF00008D8
:102C5000494628461CF0C8FB0128DBD100BF07B05D
:102C6000BDE8F0832DE9F04104460D4616461F46A7
:102C70003B46324629462046FFF78CFFBDE8F081EF
:102C80002DE9F04188B005460C461646A44903C913
:102C9000CDE9060104F540700190029000208DF806
:102CA0000C008DF80D0008208DF80E000796069890
:102CB000C0B28DF80F000698010A8DF81010069822
:102CC000010C8DF811100698000E8DF8120007986F
:102CD000C1B28DF813100798010A8DF814100798E7
:102CE000010C8DF815100798000E8DF8160001A93B
:102CF00028461CF0E1FA804600271AE0781C87B2CB
:102D000040F6B830874213DD8248854206D122461C
:102D1000AFF26C61804801F0BDF908E07F48854260
:102D200005D12246AFF264617B4801F0B3F906E0B9
:102D30000027414628461CF057FB0128DED100BF82
:102D400008B0BDE8F08170B504460D46164632461F
:102D500029462046FFF794FF70BD2DE9F04387B068
:102D600005460C4616461F4600200590069004F5C1
:102D700050700090019000208DF808008DF8090037
:102D800008208DF80A00059606970598C0B28DF8C0
:102D90000B000598010A8DF80C100598010C8DF8B0
:102DA0000D100598000E8DF80E000698C1B28DF832
:102DB0000F100698010A8DF810100698010C8DF876
:102DC00011100698000E8DF81200694628461CF076
:102DD00073FA81464FF000081DE008F101001FFA68
:102DE00080F840F6B830804513DD4A48854206D168
:102DF0002246AFF24C71484801F04CF908E04748D0
:102E0000854205D12246AFF24471434801F042F9B0
:102E100007E04FF00008494628461CF0E5FA012873
:102E2000DBD100BF07B0BDE8F0832DE9F0410446D7
:102E30000D4616461F463B46324629462046FFF7BA
:102E40008CFFBDE8F0812DE9F04387B005460C46C4
:102E50001646994600200590069004F540700090B3
:102E6000019000208DF808008DF8090008208DF8E9
:102E70000A001EB944F25010059004E0012E02D160
:102E800045F250200590CDF818900598C0B28DF805
:102E90000B000598010A8DF80C100598010C8DF8AF
:102EA0000D100598000E8DF80E000698C1B28DF831
:102EB0000F100698010A8DF810100698010C8DF875
:102EC00011100698000E8DF81200694628461CF075
:102ED000F3F907464FF0000826E008F101001FFA59
:102EE00080F840F6B83080451CDD0A48854206D19E
:102EF0002246AFF64C01084801F0CCF808E007483C
:102F0000854205D12246AFF64401034801F0C2F8DC
:102F100010E0000000640040004C004000680040E9
:102F2000982102084FF00008394628461CF05CFA48
:102F30000128D2D100BF07B0BDE8F0832DE9F041F0
:102F400004460D4616461F463B4632462946204655
:102F5000FFF779FFBDE8F0812DE9F04104460D4609
:102F600016461F463B46324629462046FFF76BFF72
:102F700029462046FFF786FDBDE8F0812DE9F047A0
:102F80008AB006460D4690469946F84BD3E90102B1
:102F90001968DB6807AC0DC4069105F54070019017
:102FA000029000208DF80C008DF80D0008208DF89F
:102FB0000E00CDF81C80CDF82490002460E006A817
:102FC00010F834008DF80F0006A830F83400010A1C
:102FD0008DF8101006A850F83400010C8DF811106F
:102FE00006A850F83400000E8DF8120006A800EB79
:102FF000C40001798DF8131006A800EBC400808886
:10300000010A8DF8141006A800EBC4004068010CFA
:103010008DF8151006A800EBC4004068000E8DF86E
:10302000160001A930461CF047F907464FF0000A88
:103030001DE00AF101001FFA80FA40F6B83082451F
:1030400013DDCB48864206D12A46AFF6A411C94803
:1030500001F020F808E0C848864205D12A46AFF6BC
:103060009C11C44801F016F807E04FF0000A3946F9
:1030700030461CF0B9F90128DBD100BF601CC4B296
:10308000022C9CDB0AB0BDE8F0872DE9F0478AB03E
:1030900006460D4690469946B44B1033D3E90102DB
:1030A0001968DB6807AC0DC4069105F54070019006
:1030B000029000208DF80C008DF80D0008208DF88E
:1030C0000E00CDF81C80CDF82490002460E006A806
:1030D00010F834008DF80F0006A830F83400010A0B
:1030E0008DF8101006A850F83400010C8DF811105E
:1030F00006A850F83400000E8DF8120006A800EB68
:10310000C40001798DF8131006A800EBC400808874
:10311000010A8DF8141006A800EBC4004068010CE9
:103120008DF8151006A800EBC4004068000E8DF85D
:10313000160001A930461CF0BFF807464FF0000A00
:103140001DE00AF101001FFA80FA40F6B83082450E
:1031500013DD8748864206D12A46AFF6B42185485A
:1031600000F098FF08E08448864205D12A46AFF671
:10317000AC21804800F08EFF07E04FF0000A39468E
:1031800030461CF031F90128DBD100BF601CC4B20D
:10319000022C9CDB0AB0BDE8F0872DE9F0478AB02D
:1031A00006460D4690469946704B2033D3E90102FE
:1031B0001968DB6807AC0DC4069105F540700190F5
:1031C000029000208DF80C008DF80D0008208DF87D
:1031D0000E00CDF81C80CDF82490002460E006A8F5
:1031E00010F834008DF80F0006A830F83400010AFA
:1031F0008DF8101006A850F83400010C8DF811104D
:1032000006A850F83400000E8DF8120006A800EB56
:10321000C40001798DF8131006A800EBC400808863
:10322000010A8DF8141006A800EBC4004068010CD8
:103230008DF8151006A800EBC4004068000E8DF84C
:10324000160001A930461CF037F807464FF0000A77
:103250001DE00AF101001FFA80FA40F6B8308245FD
:1032600013DD4348864206D12A46AFF6C4314148B1
:1032700000F010FF08E04048864205D12A46AFF62C
:10328000BC313C4800F006FF07E04FF0000A394629
:1032900030461CF0A9F80128DBD100BF601CC4B285
:1032A000022C9CDB0AB0BDE8F087F0B587B005467C
:1032B0000C462E49503103C9CDE9050104F5407093
:1032C0000090019000208DF808008DF8090008207A
:1032D0008DF80A000598C0B28DF80B000598010A18
:1032E0008DF80C100598010C8DF80D100598000E46
:1032F0008DF80E000698C1B28DF80F100698010ADD
:103300008DF810100698010C8DF811100698000E1B
:103310008DF81200694628461BF0CEFF07460026AE
:103320001AE0701C86B240F6B830864213DD1048B1
:10333000854206D12246AFF690410E4800F0AAFE23
:1033400008E00D48854205D12246AFF6884109487C
:1033500000F0A0FE06E00026394628461CF044F89E
:103360000128DED100BF07B0F0BD000060210208D7
:1033700000640040004C004000680040F0B587B099
:1033800005460C46FE4903C9CDE9050104F5407028
:103390000090019000208DF808008DF809000820A9
:1033A0008DF80A000598C0B28DF80B000598010A47
:1033B0008DF80C100598010C8DF80D100598000E75
:1033C0008DF80E000698C1B28DF80F100698010A0C
:1033D0008DF810100698010C8DF811100698000E4B
:1033E0008DF81200694628461BF066FF0746002646
:1033F0001AE0701C86B240F6B830864213DDE14810
:10340000854206D12246AFF66051DF4800F042FE09
:1034100008E0DE48854205D12246AFF65851DA4829
:1034200000F038FE06E00026394628461BF0DCFF97
:103430000128DED100BF07B0F0BDF0B587B005466A
:103440000C46CF49083103C9CDE9050104F54070A8
:103450000090019000208DF808008DF809000820E8
:103460008DF80A000598C0B28DF80B000598010A86
:103470008DF80C100598010C8DF80D100598000EB4
:103480008DF80E000698C1B28DF80F100698010A4B
:103490008DF810100698010C8DF811100698000E8A
:1034A0008DF81200694628461BF006FF07460026E5
:1034B0001AE0701C86B240F6B830864213DDB1487F
:1034C000854206D12246AFF62061AF4800F0E2FD0A
:1034D00008E0AE48854205D12246AFF61861AA48F9
:1034E00000F0D8FD06E00026394628461BF07CFF98
:1034F0000128DED100BF07B0F0BDF0B587B00546AA
:103500000C469F49103103C9CDE9050104F540700F
:103510000090019000208DF808008DF80900082027
:103520008DF80A000598C0B28DF80B000598010AC5
:103530008DF80C100598010C8DF80D100598000EF3
:103540008DF80E000698C1B28DF80F100698010A8A
:103550008DF810100698010C8DF811100698000EC9
:103560008DF81200694628461BF0A6FE0746002685
:1035700019E0701C86B240F6B830864213DD8148EF
:10358000854206D12246AFF6E0617F4800F082FD19
:1035900008E07E48854205D12246AFF6D8617A48D8
:1035A00000F078FD05E0394628461BF01DFF012894
:1035B000DFD100BF07B0F0BDF0B587B005460C46BF
:1035C0006F49183103C9CDE9050104F54070009039
:1035D000019000208DF808008DF8090008208DF872
:1035E0000A000598C0B28DF80B000598010A8DF805
:1035F0000C100598010C8DF80D100598000E8DF833
:103600000E000698C1B28DF80F100698010A8DF8C9
:1036100010100698010C8DF811100698000E8DF808
:103620001200694628461BF047FE0746002619E0AF
:10363000701C86B24EF66020864213DD51488542EA
:1036400006D12246AFF6A0714F4800F023FD08E0F6
:103650004E48854205D12246AFF698714A4800F09F
:1036600019FD05E0394628461BF0BEFE0128DFD1D2
:1036700000BF002607B0F0BDF0B587B005460C4688
:103680003F49203103C9CDE9050104F540700090A0
:10369000019000208DF808008DF8090008208DF8B1
:1036A0000A000598C0B28DF80B000598010A8DF844
:1036B0000C100598010C8DF80D100598000E8DF872
:1036C0000E000698C1B28DF80F100698010A8DF809
:1036D00010100698010C8DF811100698000E8DF848
:1036E0001200694628461BF0E7FD0746002619E050
:1036F000701C86B240F6B830864212DD2148854201
:1037000005D122462249204800F0C4FC08E01F48A9
:10371000854205D122461E491C311B4800F0BAFCE7
:1037200006E00026394628461BF05EFE0128DFD160
:1037300000BF07B0F0BDF0B587B005460C46104994
:10374000283103C9CDE9050104F5407000900190CE
:1037500000208DF808008DF8090008208DF80A0077
:103760000598C0B28DF80B000598010A8DF80C1071
:103770000598010C8DF80D100598000E0AE0000068
:10378000B821020800640040004C0040006800407E
:10379000A82600088DF80E000698C1B28DF80F100B
:1037A0000698010A8DF810100698010C8DF811107A
:1037B0000698000E8DF81200694628461BF07CFD25
:1037C0000746002619E0701C86B240F6B8308642E3
:1037D00012DDFB48854205D12246FA49FA4800F03D
:1037E00059FC08E0F948854205D12246F5491C31CB
:1037F000F54800F04FFC06E00026394628461BF04D
:10380000F3FD0128DFD100BF07B0F0BDF0B587B0F0
:1038100005460C46EE4903C9CDE9050104F54070A3
:103820000090019000208DF808008DF80900082014
:103830008DF80A000598C0B28DF80B000598010AB2
:103840008DF80C100598010C8DF80D100598000EE0
:103850008DF80E000698C1B28DF80F100698010A77
:103860008DF810100698010C8DF811100698000EB6
:103870008DF81200694628461BF01EFD07460026FB
:1038800019E0701C86B240F6B830864212DDCC4892
:10389000854205D12246CB49CB4800F0FBFB08E02E
:1038A000CA48854205D12246C6491C31C64800F0A7
:1038B000F1FB06E00026394628461BF095FD01285D
:1038C000DFD100BF07B0F0BDF0B587B005460C46AC
:1038D000BF49083103C9CDE9050104F540700090E6
:1038E000019000208DF808008DF8090008208DF85F
:1038F0000A000598C0B28DF80B000598010A8DF8F2
:103900000C100598010C8DF80D100598000E8DF81F
:103910000E000698C1B28DF80F100698010A8DF8B6
:1039200010100698010C8DF811100698000E8DF8F5
:103930001200694628461BF0BFFC0746002619E026
:10394000701C86B240F6B830864212DD9C48854233
:1039500005D122469B499C4800F09CFB08E09B480F
:10396000854205D1224697491C31974800F092FBC9
:1039700006E00026394628461BF036FD0128DFD137
:1039800000BF07B0F0BDF0B587B005460C469049C2
:10399000103103C9CDE9050104F540700090019094
:1039A00000208DF808008DF8090008208DF80A0025
:1039B0000598C0B28DF80B000598010A8DF80C101F
:1039C0000598010C8DF80D100598000E8DF80E006D
:1039D0000698C1B28DF80F100698010A8DF81010E4
:1039E0000698010C8DF811100698000E8DF8120043
:1039F000694628461BF060FC0746002619E0701C4B
:103A000086B240F6B830864212DD6D48854205D157
:103A100022466C496C4800F03DFB08E06B4885424B
:103A200005D1224667491C31674800F033FB06E0A8
:103A30000026394628461BF0D7FC0128DFD100BFFD
:103A400007B0F0BDF0B587B005460C4660491831A7
:103A500003C9CDE9050104F54070009001900020F4
:103A60008DF808008DF8090008208DF80A000598E7
:103A7000C0B28DF80B000598010A8DF80C1005985E
:103A8000010C8DF80D100598000E8DF80E000698AB
:103A9000C1B28DF80F100698010A8DF81010069823
:103AA000010C8DF811100698000E8DF81200694671
:103AB00028461BF001FC0746002619E0701C86B260
:103AC00040F6B830864212DD3D48854205D1224697
:103AD0003C493D4800F0DEFA08E03C48854205D10B
:103AE000224638491C31384800F0D4FA06E0002656
:103AF000394628461BF078FC0128DFD100BF07B00B
:103B0000F0BDF0B587B005460C463149203103C9F8
:103B1000CDE9050104F540700090019000208DF87A
:103B200008008DF8090008208DF80A000598C0B239
:103B30008DF80B000598010A8DF80C100598010C02
:103B40008DF80D100598000E8DF80E000698C1B284
:103B50008DF80F100698010A8DF810100698010CC8
:103B60008DF811100698000E8DF81200694628464F
:103B70001BF0A2FB0746002619E0701C86B240F637
:103B8000B830864212DD0E48854205D122460D49E5
:103B90000D4800F07FFA08E00C48854205D1224626
:103BA00008491C31084800F075FA06E0002639463D
:103BB00028461BF019FC0128DFD100BF07B0F0BD7B
:103BC00000640040A8260008004C00400068004047
:103BD000E821020870B504460D46E1B2FE481BF02C
:103BE000D0F800BF4021FC481BF0BEF80028F9D0F7
:103BF000204670BD10B588B004460121082019F098
:103C0000A9FF0121880419F0D8FF07220821F348F1
:103C100019F0E5FD07220921F04819F0E0FD4FF405
:103C20004070069002208DF81C008DF81D000020C9
:103C30008DF81E0001208DF81F0006A9E74819F035
:103C400043FD02940020ADF80C00ADF80E00ADF875
:103C50001000ADF814000C20ADF8120002A9E048E5
:103C60001AF0C6FF0121DE481BF04AF84021DC486B
:103C70001BF071F8012240F22551D9481BF01EF9C2
:103C800027208DF8040000208DF8050003208DF812
:103C9000060001208DF8070001A81AF09EF808B070
:103CA00010BD10B588B004460121042019F052FF60
:103CB0000121202019F092FF08220621C94819F09D
:103CC0008EFD08220721C74819F089FDC020069003
:103CD00002208DF81C008DF81D0000208DF81E00BC
:103CE00001208DF81F0006A9BE4819F0EDFC0294D2
:103CF0000020ADF80C00ADF80E00ADF81000ADF8E6
:103D000014000C20ADF8120002A9B7481AF070FF99
:103D10000121B5481AF0F4FF4021B3481BF01BF80D
:103D2000012240F22551B0481BF0C8F847208DF819
:103D3000040001208DF8050004208DF80600012004
:103D40008DF8070001A81AF048F808B010BD10B5AA
:103D500088B004460121084619F0FCFE0121C80480
:103D600019F02BFF08220021A04819F038FD082285
:103D700001219E4819F033FD0320069002208DF8A2
:103D80001C008DF81D0000208DF81E0001208DF80C
:103D90001F0006A9954819F097FC02940020ADF881
:103DA0000C00ADF80E00ADF81000ADF814000C20BA
:103DB000ADF8120002A98E481AF01AFF40218C4873
:103DC0001AF0C9FF34208DF8040001208DF8050099
:103DD00004208DF8060001208DF8070001A819F0D5
:103DE000FCFF012240F2255181481BF067F80121B8
:103DF0007F481AF085FF08B010BD10B588B00446A2
:103E00000121084619F0A6FE0121102019F0E6FE56
:103E100007220921754819F0E2FC07220A2173489C
:103E200019F0DDFC4FF4C060069002208DF81C00F4
:103E30008DF81D0000208DF81E0001208DF81F0058
:103E400006A96A4819F040FC02940020ADF80C0065
:103E5000ADF80E00ADF81000ADF814000C20ADF870
:103E6000120002A963481AF0C3FE402161481AF00B
:103E700072FF25208DF8040000208DF80500022037
:103E80008DF8060001208DF8070001A819F0A5FFA4
:103E9000012240F2255157481BF010F801215548E6
:103EA0001AF02EFF08B010BD10B588B004460121ED
:103EB000084619F04FFE0121480419F07EFE072242
:103EC00002214A4819F08BFC07220321474819F0C8
:103ED00086FC0C20069002208DF81C008DF81D0039
:103EE00000208DF81E0001208DF81F0006A93F4814
:103EF00019F0EAFB02940020ADF80C00ADF80E00BA
:103F0000ADF81000ADF814000C20ADF8120002A9B5
:103F100039481AF06DFE402137481AF01CFF262060
:103F20008DF8040000208DF8050004208DF80600AF
:103F300001208DF8070001A819F04FFF012240F27F
:103F400025512D481AF0BAFF01212B481AF0D8FE4E
:103F500008B010BD10B588B0044601940020ADF83B
:103F60000800ADF80A00ADF80C00ADF810000C2008
:103F7000ADF80E00012119F0EDFD0121080519F041
:103F80001CFE08220C21174819F029FC08220221E6
:103F9000124819F024FC00208DF81A0001208DF839
:103FA0001B0002208DF81800C002059002208DF839
:103FB000190005A90B4819F087FB02208DF818009D
:103FC0000420059005A9054819F07EFB01A90248C7
:103FD0001AF00EFE352011E000500040000C0240A7
:103FE0000048004000080240001401400000024068
:103FF000004C004000100140004400408DF81C00BF
:1040000001208DF81F008DF81D008DF81E004FF463
:10401000A06019F0DDFE07A819F0DFFE012240F2D2
:1040200025515E481AF04AFF01215C481AF068FEEB
:1040300008B010BDF0B503460D46164600272946C8
:104040000A2E03D0002008702846F0BD33B9302076
:1040500001F8010B002008702846F6E7002B03DA70
:104060002D2001F8010B5B424D4A0DE0B3FBF2F449
:1040700004B937B104F1300001F8010B04FB12332D
:1040800001270A20B2FBF0F2002AEFD100200870CD
:104090002846DAE70FB470B586B006460CA8019042
:1040A00073E00B9800785C281CD10B98401C0B9097
:1040B00000786E2809D072280FD10D2130461AF0F1
:1040C00060FE0B98401C0B900BE00A2130461AF062
:1040D00058FE0B98401C0B9003E00B98401C0B9073
:1040E00000BF4BE00B980078252840D10B98401C6E
:1040F0000B900078642818D0732833D1019810C829
:1041000001900BE0217830461AF03BFE00BF4021C1
:1041100030461AF029FE0028F9D0641C20780028C7
:10412000F0D10B98401C0B9020E0019820C8019022
:104130000A2202A92846FFF77DFF02AC0BE0217896
:1041400030461AF01EFE00BF402130461AF00CFE29
:104150000028F9D0641C20780028F0D10B98401C6E
:104160000B9003E00B98401C0B9000BF06E00B98EF
:1041700010F8011B0B9030461AF003FE00BF4021DF
:1041800030461AF0F1FD0028F9D00B98007800288D
:1041900087D106B070BC5DF814FB000000500040F1
:1041A00000E1F5052DE9F04F8BB006460F461446A9
:1041B0001D46DDF850804FF00009CA46CB46B5F5E4
:1041C000807F43D012DC102D34D008DC012D25D0A7
:1041D000022D26D0042D27D0082D4FD127E0202DE9
:1041E0002BD0402D2CD0802D48D12CE0B5F5805F10
:1041F00038D009DCB5F5007F2BD0B5F5806F2BD01A
:10420000B5F5006F3AD12AE0B5F5005F2DD0B5F5D0
:10421000804F2DD0B5F5004F30D12CE04FF0000984
:104220002DE04FF001092AE04FF0020927E04FF09E
:10423000030924E04FF0040921E04FF005091EE0D6
:104240004FF006091BE04FF0070918E04FF008098E
:1042500015E04FF0090912E04FF00A090FE04FF0A6
:104260000B090CE04FF00C0909E04FF00D0906E0D6
:104270004FF00E0903E04FF00F0900E000BF00BF50
:10428000B8F5807F4BD01ADCB8F1100F3BD00CDCB6
:10429000B8F1010F2BD0B8F1020F2BD0B8F1040FF9
:1042A0002BD0B8F1080F52D12AE0B8F1200F2DD051
:1042B000B8F1400F2DD0B8F1800F48D12CE0B8F5FF
:1042C000805F38D009DCB8F5007F2BD0B8F5806F5F
:1042D0002BD0B8F5006F3AD12AE0B8F5005F2DD0A9
:1042E000B8F5804F2DD0B8F5004F30D12CE04FF00D
:1042F000000A2DE04FF0010A2AE04FF0020A27E001
:104300004FF0030A24E04FF0040A21E04FF0050AC1
:104310001EE04FF0060A1BE04FF0070A18E04FF0CE
:10432000080A15E04FF0090A12E04FF00A0A0FE000
:104330004FF00B0A0CE04FF00C0A09E04FF00D0AA9
:1043400006E04FF00E0A03E04FF00F0A00E000BF56
:1043500000BFA748304418B1B0F5806F1AD10CE007
:104360004FF0090B00208DF8120014208DF8040086
:104370000121480619F021FC0DE04FF0090B0E2039
:104380008DF8120040208DF804000121000519F07D
:1043900014FC00E000BF00BFC4F3090078BBA0120A
:1043A000A0F580108038092834D2DFE800F0050A33
:1043B0000F14191E23292E000121084619F0CAFBEB
:1043C00029E00121022019F0C5FB24E0012104208D
:1043D00019F0C0FB1FE00121082019F0BBFB1AE017
:1043E0000121102019F0B6FB15E00121202019F061
:1043F000B1FB10E00121402019F0ACFB0BE009E01B
:104400000121802019F0A6FB05E00121080219F026
:10441000A1FB00E000BF00BF5A464946204619F004
:10442000DEF95A465146204619F0D9F945EA080006
:10443000099002208DF828008DF8290000208DF8C1
:104440002A0001208DF82B0009A9204619F03CF91B
:1044500030461AF09FFD00208DF81E0001208DF8D7
:104460001F0000208DF820008DF821008DF822001B
:104470008DF823008DF81A008DF81B000B208DF8A5
:104480001C0007208DF81D007D2F22D008DC0A2F8C
:104490000FD0142F11D0322F13D0642F29D114E054
:1044A000FA2F1AD0B7F5FA7F1BD0B7F57A7F20D153
:1044B0001BE0C820ADF818001CE06420ADF818001F
:1044C00018E02820ADF8180014E01420ADF818000A
:1044D00010E01020ADF818000CE00820ADF818002E
:1044E00008E00420ADF8180004E00220ADF8180040
:1044F00000E000BF00BF06A930461AF064FD0020AE
:104500008DF813008DF81400ADF80800ADF80A001E
:10451000ADF80C00ADF80E00ADF8100001208DF8DC
:10452000150002A81AF0D9FD01208DF805008DF8BC
:1045300006008DF8070001A819F04FFC01220221A6
:1045400030461BF0C9F80BB0BDE8F08F2DE9F04301
:1045500085B081460D4690461E4600240095019583
:1045600000208DF808008DF809008DF80A6000BF62
:1045700006E018F804100DF10B000155601C84B220
:10458000B442F6DB694648461AF096FE0746002418
:1045900000BF394648461AF027FF0128F9D105B077
:1045A000BDE8F0832DE9F04186B080460D46164601
:1045B0001F460024002140461AF0F6FF18B90020DB
:1045C00006B0BDE8F08101AA002140461AF069FF5B
:1045D000002405E00DF10F00005D3055601CC4B2F1
:1045E0003878A042F6DC019828600120E8E7000056
:1045F000009CFFBF10B5F748007808287ED2DFE89E
:1046000000F0041221303F4E5D6C0FF0A2F9F24928
:10461000087008460078012804D1EE49087000208F
:10462000ED490870B4E00FF0C3FAEB490870084692
:104630000078012805D10220E64908700020E649EB
:104640000870A5E010F0CFF8E3490870084600783C
:10465000012805D10320DF4908700020DE490870D9
:1046600096E010F089FEDC490870084600780128C1
:1046700005D10420D74908700020D749087087E089
:1046800011F053FBD449087008460078012805D181
:104690000520D04908700020CF49087078E012F05A
:1046A0006DFBCD49087008460078012805D1062029
:1046B000C84908700020C849087069E012F086FDFA
:1046C000C549087008460078012805D10720C1496E
:1046D00008700020C04908705AE00020BF490870E7
:1046E000BF4991F8250091ED1C2AF0EE421A91ED98
:1046F0001C2AB0EE421A91ED1B2A00E047E0F0EED2
:10470000420A91ED1B2AB0EE420A02F0EAF8B549DE
:1047100091F8250091ED1C2AF0EE421A91ED1C2A29
:10472000B0EE421A91ED1B2AF0EE420A91ED1B2ADF
:10473000B0EE420A02F0D5F8AB4991F8250091EDB0
:104740001C2AF0EE421A91ED1C2AB0EE421A91EDAD
:104750001B2AF0EE420A91ED1B2AB0EE420A02F04B
:10476000C0F8A24991F8250091ED1C2AF0EE421AFA
:1047700091ED1C2AB0EE421A91ED1B2AF0EE420A8E
:1047800091ED1B2AB0EE420A02F0ABF800E000BF48
:1047900000BF10BD10B58F48007808287ED2DFE832
:1047A00000F0041221303F4E5D6C09F05BFD8A4938
:1047B000087008460078012804D186490870002056
:1047C00085490870B4E009F07CFE8349087008460A
:1047D0000078012805D102207E49087000207E491A
:1047E0000870A5E00AF042FC7B4908700846007892
:1047F000012805D103207749087000207649087008
:1048000096E00BF001FA7449087008460078012818
:1048100005D104206F49087000206F49087087E0B7
:104820000BF0E4FE6C49087008460078012805D1B9
:1048300005206849087000206749087078E00CF08E
:10484000ECFE6549087008460078012805D106206D
:104850006049087000206049087069E00DF074F844
:104860005D49087008460078012805D1072059499C
:1048700008700020584908705AE000205749087015
:10488000574991F8250091ED1C2AF0EE421A91ED5E
:104890001C2AB0EE421A91ED1B2A00E047E0F0EE30
:1048A000420A91ED1B2AB0EE420A02F01AF84D4975
:1048B00091F8250091ED1C2AF0EE421A91ED1C2A88
:1048C000B0EE421A91ED1B2AF0EE420A91ED1B2A3E
:1048D000B0EE420A02F005F8434991F8250091ED47
:1048E0001C2AF0EE421A91ED1C2AB0EE421A91ED0C
:1048F0001B2AF0EE420A91ED1B2AB0EE420A01F0AB
:10490000F0FF3A4991F8250091ED1C2AF0EE421A89
:1049100091ED1C2AB0EE421A91ED1B2AF0EE420AEC
:1049200091ED1B2AB0EE420A01F0DBFF00E000BF70
:1049300000BF10BD70B504460D4600262C48007817
:10494000012871D12B480078012801D10A2600E006
:104950000026DFED290A9FED290A03F002F8284915
:10496000088028480088022806DA2288022146208A
:1049700014F0DAF82880E5E1224800880C2819DADA
:104980001F48B0F9000000280ADB22881C4909886A
:10499000463188B24FF0FF3114F0C6F82880D1E1DB
:1049A000228817490988463188B2012114F0BCF8E1
:1049B0002880C7E1134800880C2825DB11480088AF
:1049C0000F2821DA22884FF0FF31642014F0ACF870
:1049D0002880B7E14E0000204F000020D4000020C6
:1049E00024660020C86600206C6700201068002044
:1049F0000D000020160000206E469D3C87C3E43B5E
:104A0000500000200C010020DC4800880F280CDB3F
:104A1000DA480088122808DA22884FF0FF31642033
:104A200014F082F828808DE19AE0D448008812289A
:104A30002ADBD2480088152826DAD14800780228D7
:104A400003D0CE480088122805D1228802214620B2
:104A500014F06AF82880CA48007801288BD1C7482A
:104A60000088132805D122880121962014F05CF8D3
:104A70002880C2480088142891D1228802217820F9
:104A800014F052F828805DE1BC480088152818DB36
:104A9000BA4800881E2814DAB9480078022805D1DF
:104AA0002288C11E6E2014F03FF82880B448007898
:104AB00001288ED12288811E782014F035F82880B4
:104AC00040E1AE4800881E280CDBAC480088202856
:104AD00008DA228806F18C004FF0FF3114F024F838
:104AE00028802FE1A548008820280BDBA3480088F8
:104AF000222807DA228806F15F00032114F014F857
:104B000028801FE19D48008822280BDB9B480088F5
:104B1000282807DA228806F15F00012114F004F842
:104B200028800FE19548008828280CDB93480088EE
:104B30002B2808DA228806F15F004FF0FF3113F0CE
:104B4000F3FF2880FEE08D4800882B289BDB22881D
:104B500006F15A004FF0FF3113F0E6FF2880F1E034
:104B600088480078012801D1002600E00026DFED0A
:104B7000860A1FED5E0A02F0F4FE844908807F4831
:104B80000088022806DA22880221462013F0CCFF92
:104B90002880D7E0794800880C2819DA7B48B0F9DA
:104BA000000000280ADB228878490988463188B24B
:104BB0004FF0FF3113F0B8FF2880C3E0228873491B
:104BC0000988463188B2012113F0AEFF2880B9E090
:104BD0006A4800880C280BDB684800880F2807DA31
:104BE00022884FF0FF31642013F09EFF2880A9E057
:104BF000624800880F280BDB60480088122807DA1B
:104C000022884FF0FF31642013F08EFF288099E056
:104C10005A48008812282ADB58480088152826DAC6
:104C200057480078022803D054480088122805D13C
:104C300022880221462013F077FF28805048007810
:104C400001287FD14D480088132805D122880121F1
:104C5000962013F069FF288048480088142871D1F5
:104C600022880221782013F05FFF28806AE0434801
:104C70000088152818DB414800881E2814DA4048AF
:104C80000078022805D12288C11E6E2013F04CFF47
:104C900028803B480078012854D12288811E782042
:104CA00013F042FF28804DE0344800881E280CDBBA
:104CB00032480088202808DA228806F18C004FF05C
:104CC000FF3113F031FF28803CE02C480088202879
:104CD0000BDB2A480088222807DA228806F16400C4
:104CE000032113F021FF28802CE02448008822288B
:104CF0000BDB22480088282807DA228806F16400A6
:104D0000012113F011FF28801CE01C48008828288E
:104D10000CDB1A4800882B2808DA228806F1640088
:104D20004FF0FF3113F000FF28800BE0134800889C
:104D30002B2807DB228806F164004FF0FF3113F0C7
:104D4000F3FE28802888208070BDF0EE400A9FED99
:104D5000101AB0EE410A20EEA01A21EE201AB0EE91
:104D6000410A7047F0EE400A9FED091AB0EE410A81
:104D700020EEA01AB0EE410A704700000C0100209E
:104D80005200002016000020A692AB3C50000020EC
:104D900000000000FA490870704710B515F012F9CC
:104DA0000446F8480078401CF6490870204615F083
:104DB0000DF940F22551F4481AF0A5F801287DD1EB
:104DC00040F22551F0481AF0D5F8EF4819F0EFFFFE
:104DD000EE490870EE480078052870D2DFE800F050
:104DE0000315354C5A00E94800780D2803D0E748F0
:104DF00000784F2805D1E6480078401CE449087047
:104E000002E00020E2490870F4E0E04800780A2857
:104E100008D10020DF490870DD480078401CDC49DB
:104E2000087011E0D94800784B2806D10120DA49F2
:104E300008700020D649087006E0D44800780D2894
:104E400002D00020D2490870D4E0D0480078D3497D
:104E5000D04A12788854CF480078401CCD49087059
:104E600008460078182806DB00200870C84800783B
:104E7000401CC7490870BDE0C44800780A2805D125
:104E8000C3480078401CC249087002E00020C049B5
:104E90000870AFE0BD4800780D287CD10120FFF7F5
:104EA00079FFBE4890ED000ADFEDBD0A20EE200A32
:104EB000DFEDBC0A80EE201ABB4801E09BE095E0E4
:104EC00080ED001AB54890ED010ADFEDB50A20EE3D
:104ED000200ADFEDB40A80EE201AB34880ED011AF3
:104EE000AE4890ED020ADFEDAE0A20EE200ADFEDBB
:104EF000AD0A80EE201AAC4880ED021AA74890ED6A
:104F0000030ADFEDA70A20EE200ADFEDA60A80EEF5
:104F1000201AA54880ED031AA04890ED040ADFEDA1
:104F2000A00A20EE200ADFED9F0A80EE201A9E489C
:104F300080ED041A994890ED050ADFED990A20EEFC
:104F4000200ADFED980A80EE201A974880ED051AB6
:104F5000924890ED000A954880ED080A8F4890ED40
:104F6000010A924880ED090A8C4890ED020A8F48A8
:104F700080ED0A0A894890ED030A8C4880ED0B0AFF
:104F8000864890ED040A894880ED0C0A834890ED2C
:104F9000050A864800E025E080ED0D0A7F4890ED87
:104FA000000A834880ED080A7C4890ED010A804899
:104FB00080ED090A794890ED020A7D4880ED0A0AE1
:104FC000764890ED030A7A4880ED0B0A734890ED1D
:104FD000040A774880ED0C0A704890ED050A744881
:104FE00080ED0D0A00206A49087003E0002068493E
:104FF000087000BF37E02821634819F0BBFF40F27A
:105000002771614819F0B6FF40F226615E4819F039
:10501000B1FF40F225315C4819F0ACFF40F2244169
:10502000594819F0A7FF40F64601574819F0A2FF6A
:1050300040F66A11544819F09DFF6021524819F05A
:1050400099FF4FF45871504819F094FF4FF41871BC
:105050004D4819F08FFF4FF4B0714B4819F08AFF9B
:10506000494819F0A4FE15F09CFC10BD38B5002489
:1050700041208DF8000054208DF801000D208DF89E
:1050800002000A208DF803000020434908700EE05A
:105090004DF6BF20FCF7B8FB002406E01DF8041015
:1050A000394819F06EFE601CC4B2042CF6DB3A4895
:1050B00000780028ECD038BD31480078704710B532
:1050C000FFF7D4FF00BFFFF7F7FF0028FBD039A19F
:1050D0003D48FEF7DFFF10BD3C4880ED000A7047F9
:1050E0003A4880ED010A7047384880ED020A70475F
:1050F000364880ED030A7047344880ED040A704753
:10510000324880ED050A7047304890ED000A70473C
:105110002E4890ED010A70472C4890ED020A704726
:105120002A4890ED030A7047284890ED040A70471A
:10513000264890ED050A70471CB5002441208DF8E3
:10514000000054208DF801002B208DF80200432030
:105150008DF8030041208DF804000D208DF8050026
:105160000A208DF8060000BF06E01DF8041006486E
:1051700019F007FE601CC4B2072CF6DB1CBD000052
:1051800054000020CD35002000480040550000208C
:10519000560000205700002053000020F468002033
:1051A000DA0F494000003443CC6800200099002009
:1051B00074990020204F70732020697320206F6B3A
:1051C00020210D0A00000000004C00400C69002066
:1051D00000B591B04022FE4901A81AF0ECFDFD484F
:1051E00090F82C0048BBFB4890ED000ADDED010A69
:1051F000B4EEE00AF1EE10FA1DD290ED000AF7EEDF
:10520000000AB4EEE00AF1EE10FA14DD90ED010AA6
:10521000DDED090AB4EEE00AF1EE10FA0BD290EDE2
:10522000010AF7EE000AB4EEE00AF1EE10FA02DD30
:10523000012011B000BD0020FBE7E64890F82C00EB
:1052400001281FD1E34890ED000ADDED020AB4EE1B
:10525000E00AF1EE10FA13D290ED010ADDED0A0A30
:10526000B4EEE00AF1EE10FA0AD290ED010AF7EE80
:10527000000AB4EEE00AF1EE10FA01DD0120D8E7F1
:105280000020D6E7D34890F82C00022828D1D14836
:1052900090ED000ADDED030AB4EEE00AF1EE10FA3B
:1052A0001CD290ED000AF7EE000AB4EEE00AF1EE2F
:1052B00010FA13DD90ED010ADDED0C0AB4EEE00A00
:1052C000F1EE10FA0AD290ED010AF7EE000AB4EE00
:1052D000E00AF1EE10FA01DD0120AAE70020A8E7BC
:1052E000BC4890F82C0003281FD1BA4890ED000A62
:1052F000DDED040AB4EEE00AF1EE10FA13D290EDFF
:10530000010ADDED0C0AB4EEE00AF1EE10FA0AD261
:1053100090ED010AF7EE000AB4EEE00AF1EE10FAA1
:1053200001DD012085E7002083E7AA4890F82C00E2
:10533000042828D1A74890ED000ADDED050AB4EE57
:10534000E00AF1EE10FA1CD290ED000AF7EE000A26
:10535000B4EEE00AF1EE10FA13DD90ED010ADDED96
:105360000D0AB4EEE00AF1EE10FA0AD290ED010A4D
:10537000F7EE000AB4EEE00AF1EE10FA01DD0120CA
:1053800057E7002055E7934890F82C00052816D1E0
:10539000904890ED000ADDED060AB4EEE00AF1EE69
:1053A00010FA0AD290ED000AF7EE000AB4EEE00A15
:1053B000F1EE10FA01DD01203BE7002039E78548D6
:1053C00090F82C00062828D1824890ED000ADDEDE7
:1053D000070AB4EEE00AF1EE10FA1CD290ED000AD2
:1053E000F7EE000AB4EEE00AF1EE10FA13DD90EDEC
:1053F000010ADDED0F0AB4EEE00AF1EE10FA0AD26E
:1054000090ED010AF7EE000AB4EEE00AF1EE10FAB0
:1054100001DD01200DE700200BE76E4890F82C001D
:10542000072828D16B4890ED000ADDED080AB4EE9C
:10543000E00AF1EE10FA1CD290ED000AF7EE000A35
:10544000B4EEE00AF1EE10FA13DD90ED010ADDEDA5
:10545000100AB4EEE00AF1EE10FA0AD290ED010A59
:10546000F7EE000AB4EEE00AF1EE10FA01DD0120D9
:10547000DFE60020DDE60020DBE610B514F0A2FD3B
:10548000044655480078401C53490870204614F0E3
:105490009DFD40F22551514819F035FD012870D18C
:1054A00040F225514D4819F065FD4C4819F07FFC3C
:1054B0004B4908704B480078092875D2DFE800F0A6
:1054C000051F38759DABF5FFF200454800780D28A3
:1054D00003D0434800786F2805D142480078401C2B
:1054E000404908700AE03E480078672803D106204A
:1054F0003C49087002E000203A49087001E1384850
:1055000000780A2808D1002037490870354800780B
:10551000401C344908700AE0314800786B2803D1F8
:1055200004203049087002E000202E490870E8E0AD
:105530002B480078303808282ED2DFE800F0040924
:105540000E13181D23280020224981F82C0024E086
:105550000120204981F82C001FE002201D4981F81C
:105560002C001AE003201B4981F82C0015E00420D0
:10557000184981F82C0010E00520164981F82C000C
:105580000BE0BFE00620134981F82C0005E007205E
:10559000104981F82C0000E000BF00BF11480078DE
:1055A000401C10490870ACE0A7E00D4800780F4996
:1055B0000D4A127888540C480078401C0A4908703B
:1055C00008460078102817DB0020087005480FE017
:1055D0001022020834690020CD350020004400402C
:1055E000600000206100002062000020246900208B
:1055F0000078401CFE49087083E0FE4800780D28C2
:1056000005D1FB480078401CF949087002E00020F1
:10561000F749087075E0F74800780A283ED1012064
:10562000F5490870F54890ED000AF54880ED000A4C
:10563000F24890ED010AF24880ED010AEF4890ED42
:10564000020AEF4880ED0C0AEC4890ED030AEC48A2
:1056500080ED0A0A90ED080A80ED090AE94890ED0C
:10566000020AE74880ED080A90ED010ADFEDE60A3C
:1056700030EE600AB0EEC00ADFEDE40AB4EEE00AF4
:10568000F1EE10FA02D20120E1490870FFF7A0FD07
:10569000012803D1DF490870DF4908700020D44990
:1056A00008702EE019E00AE0FFE7D24800786F2882
:1056B00004D1CF480078401CCD49087021E0CD4886
:1056C00000780D2805D1CA480078401CC8490870E8
:1056D00002E00020C649087013E0C64800780A2896
:1056E00007D10120C64981F82E000020C04908706A
:1056F00002E00020BE49087003E00020BC490870A9
:1057000000BF37E02821C54819F034FC40F227716A
:10571000C24819F02FFC40F22661C04819F02AFC5B
:1057200040F22531BD4819F025FC40F22441BB4828
:1057300019F020FC40F64601B84819F01BFC40F671
:105740006A11B64819F016FC6021B44819F012FC31
:105750004FF45871B14819F00DFC4FF41871AF486F
:1057600019F008FC4FF4B071AC4819F003FCAB48D9
:1057700019F01DFB15F015F910BD70B52DED028B5C
:1057800084B00546B0EE408A0E460024A44880ED61
:10579000008A61208DF8040074208DF805002B200C
:1057A0008DF806009F480078012803D130208DF83D
:1057B000070005E09B48007810B931208DF80700FC
:1057C0002B208DF80800092D04D00F2D06D01D2D9B
:1057D0000CD107E033208DF809000BE036208DF85E
:1057E000090007E039208DF8090003E030208DF82A
:1057F000090000BF00BF8A4800788DF80A00884879
:1058000040788DF80B00864880788DF80C0084482D
:10581000C0788DF80D000D208DF80E000A208DF84F
:105820000F0081480078401C7F4908704FF4967043
:1058300090FBF6F0097888420DDC00207A49087068
:10584000002406E001A8015D744819F09AFA601C72
:10585000C4B20C2CF6DB04B0BDEC028B70BD30B5CD
:105860002DED028B83B0B0EE408A0025002400208D
:105870000090019002906A4880ED008A61208DF8C6
:10588000000074208DF801002B208DF8020065487F
:105890000078012803D130208DF8030009E0614829
:1058A000007818B931208DF8030002E030208DF81F
:1058B00003002B208DF8040030208DF80500584897
:1058C00000788DF80600564840788DF80700544857
:1058D00080788DF808005248C0788DF809000D20B6
:1058E0008DF80A000A208DF80B0010E04DF6BF205D
:1058F000FBF78AFF002406E01DF80410474819F062
:1059000040FA601CC4B20C2CF6DB681CC5B23A48E5
:10591000007808B9962DE9DC44A14D48FEF7BAFBA2
:1059200003B0BDEC028B30BD1CB5002461208DF8A6
:10593000000074208DF801002B208DF802003948FA
:105940000078012803D130208DF8030005E03548A8
:10595000007810B931208DF803002B208DF8040059
:1059600073208DF805000D208DF806000A208DF8B3
:105970000700002406E01DF80410284819F001FA79
:10598000601CC4B2082CF6DB1CBD10B501203149E7
:10599000087000213048FDF750FD30480068401C79
:1059A0002E49086008464068401C486008468068E8
:1059B000401C88600846C068401CC86008460069F2
:1059C000401C086108464069401C486108468069DF
:1059D000401C88610846C069401CC86100212048FD
:1059E000FDF72BFD1F480068401C1E4908603BE086
:1059F0006100002060000020580000202469002081
:105A000034690020CC68002000C0284400004842CF
:105A10005B0000205A000020590000200044004094
:105A20005C0000200D0000206300002020766973D8
:105A3000696F6E2020636F6D6D756E696361746947
:105A40006F6E20697320206F6B20210D0A0000000B
:105A5000004C00404400002000640040D09800202A
:105A600000680040F098002008464068401C4860EC
:105A700008468068401C88600846C068401CC860B2
:105A8000FC4800882E2803DB0521FB48FDF7D5FCE8
:105A900010BD10B50021F948FDF72FFD10BD10B560
:105AA0003221F548FDF7C9FCF54890ED080ADFED15
:105AB000F50A20EE200A80ED000A90ED0B0ADFEDDA
:105AC000F10A20EE200A80ED010AEF4890ED090A64
:105AD000DFEDEC0A20EE200A80ED000A90ED0C0AC2
